:100000000C9462000C948A000C948A000C948A0070
:100010000C948A000C948A000C948A000C948A0038
:100020000C948A000C948A000C948A000C948A0028
:100030000C948A000C948A000C948A000C948A0018
:100040000C9445020C948A000C94B5020C948F0217
:100050000C948A000C948A000C948A000C948A00F8
:100060000C948A000C948A000000000023002600F3
:10007000290000000000240027002A0000000000E2
:10008000250028002B0004040404040404040202D4
:100090000202020203030303030301020408102007
:1000A0004080010204081020010204081020000012
:1000B0000008000201000003040700000000000027
:1000C00000002F0411241FBECFEFD8E0DEBFCDBF4C
:1000D00011E0A0E0B1E0E8ECF8E002C005900D927C
:1000E000A632B107D9F721E0A6E2B1E001C01D9226
:1000F000A23DB207E1F710E0C2E6D0E004C02197CC
:10010000FE010E945C04C136D107C9F70E94E702D4
:100110000C9462040C940000833081F028F4813048
:1001200099F08230A9F008958730A9F08830C9F09D
:100130008430B1F4809180008F7D03C08091800075
:100140008F7780938000089584B58F7784BD08955C
:1001500084B58F7DFBCF8091B0008F778093B00006
:1001600008958091B0008F7DF9CF1F93CF93DF93D7
:10017000282F30E0F901E255FF4F8491F901E6564E
:10018000FF4FD491F901EA57FF4FC491CC23A9F056
:10019000162F81110E948C00EC2FF0E0EE0FFF1F54
:1001A000E458FF4FA591B4918FB7F894EC911111D9
:1001B00008C0D095DE23DC938FBFDF91CF911F91D4
:1001C0000895DE2BF8CFCF93DF9390E0FC01E65645
:1001D000FF4F24918A579F4FFC0184918823C9F0D7
:1001E00090E0880F991FFC01EE58FF4FA591B49144
:1001F000FC01E458FF4FC591D49161110DC09FB728
:10020000F8948C91209582238C93888128232883CD
:100210009FBFDF91CF910895623051F49FB7F8945A
:100220003C91822F809583238C93E8812E2BEFCFF6
:100230008FB7F894EC912E2B2C938FBFEACFAF920F
:10024000BF92CF92DF92EF92FF920F931F93CF93C3
:10025000DF936C017B018B01040F151FEB015E0125
:10026000AE18BF08C017D10759F06991D601ED91BA
:10027000FC910190F081E02DC6010995892B79F759
:10028000C501DF91CF911F910F91FF90EF90DF900B
:10029000CF90BF90AF900895FC01538D448D252FD2
:1002A00030E0842F90E0821B930B541710F0CF9610
:1002B000089501970895FC01918D828D981761F042
:1002C000A28DAE0FBF2FB11D5D968C91928D9F5F59
:1002D0009F73928F90E008958FEF9FEF0895FC0138
:1002E000918D828D981731F0828DE80FF11D858DEB
:1002F00090E008958FEF9FEF0895FC01918D228D7E
:10030000892F90E0805C9F4F821B91098F73992702
:1003100008958CE291E00E947D0121E0892B09F48F
:1003200020E0822F089580E090E0892B29F00E9440
:10033000890181110C9400000895FC01A48DA80F7F
:10034000B92FB11DA35ABF4F2C91848D90E0019617
:100350008F739927848FA689B7892C93A089B18937
:100360008C91837080648C93938D848D981306C0D8
:100370000288F389E02D80818F7D80830895EF923C
:10038000FF920F931F93CF93DF93EC0181E0888F4F
:100390009B8D8C8D98131AC0E889F989808185FF1F
:1003A00015C09FB7F894EE89FF896083E889F989C1
:1003B00080818370806480839FBF81E090E0DF91C3
:1003C000CF911F910F91FF90EF900895F62E0B8D16
:1003D00010E00F5F1F4F0F731127E02E8C8D8E11D1
:1003E0000CC00FB607FCFACFE889F989808185FF38
:1003F000F5CFCE010E949D01F1CFEB8DEC0FFD2FCB
:10040000F11DE35AFF4FF0829FB7F8940B8FEA89F2
:10041000FB8980818062CFCFCF93DF93EC01888D01
:100420008823B9F0AA89BB89E889F9898C9185FD6F
:1004300003C0808186FD0DC00FB607FCF7CF8C91FD
:1004400085FFF2CF808185FFEDCFCE010E949D0117
:10045000E9CFDF91CF910895CF93DF93D82FC8E0F4
:100460006D2F661F6627661F8DE00E94B500DD0FA9
:1004700061E08BE00E94B50060E08BE00E94B50077
:10048000C15071F7DF91CF9108951F920F920FB66F
:100490000F9211242F933F938F939F93AF93BF930A
:1004A0008091CE019091CF01A091D001B091D10166
:1004B0003091CD0123E0230F2D3758F50196A11D72
:1004C000B11D2093CD018093CE019093CF01A093D5
:1004D000D001B093D1018091C9019091CA01A0913E
:1004E000CB01B091CC010196A11DB11D8093C90132
:1004F0009093CA01A093CB01B093CC01BF91AF916F
:100500009F918F913F912F910F900FBE0F901F9051
:10051000189526E8230F0296A11DB11DD2CF1F9278
:100520000F920FB60F9211242F933F934F935F9327
:100530006F937F938F939F93AF93BF93EF93FF93AB
:100540008CE291E00E949D01FF91EF91BF91AF91EC
:100550009F918F917F916F915F914F913F912F91DB
:100560000F900FBE0F901F9018951F920F920FB60D
:100570000F9211242F938F939F93EF93FF93E0910A
:100580003C01F0913D018081E0914201F0914301F5
:1005900082FD1BC09081809145018F5F8F732091F8
:1005A0004601821741F0E0914501F0E0E45DFE4F25
:1005B000958F80934501FF91EF919F918F912F919E
:1005C0000F900FBE0F901F9018958081F4CF7894F4
:1005D00084B5826084BD84B5816084BD85B5826048
:1005E00085BD85B5816085BD80916E0081608093F9
:1005F0006E00109281008091810082608093810062
:100600008091810081608093810080918000816071
:10061000809380008091B10084608093B1008091CC
:10062000B00081608093B00080917A0084608093F4
:100630007A0080917A00826080937A0080917A00BB
:10064000816080937A0080917A00806880937A003C
:100650001092C100E0913C01F0913D0182E0808365
:10066000E0913801F09139011082E0913A01F09166
:100670003B018FEC808310924401E0914001F091A6
:10068000410186E08083E0913E01F0913F0180814D
:1006900080618083E0913E01F0913F01808188601C
:1006A0008083E0913E01F0913F01808180688083EA
:1006B000E0913E01F0913F0180818F7D808361E078
:1006C0008DE00E94E30061E08CE00E94E30061E0C5
:1006D0008BE00E94E30061E08EE00E94E30061E0B5
:1006E0008FE00E94E30061E080E10E94E30061E0AE
:1006F00081E10E94E30062E086E00E94E30060E0A6
:1007000085E00E94E30060E084E00E94E30062E094
:1007100081E00E94E30060E08CE00E94B50080E48C
:100720000E942C0280E40E942C0261E08CE00E9476
:10073000B500109227011092260160E08CE00E9423
:10074000B50080E40E942C0280E40E942C0261E04B
:100750008CE00E94B50060E08EE00E94B50060E091
:100760008FE00E94B50060E080E10E94B50060E08B
:1007700081E10E94B500CFEAD0E00BE910E097E8F4
:10078000E92E90E0F92E20E0C22E20E0D22E8FB785
:10079000F8948090CE019090CF01A090D001B090BD
:1007A000D1018FBFFE018491F8017490F70164902C
:1007B000662009F451C081110E948C00E62DF0E002
:1007C000EE0FFF1FE859FF4FA591B4918C9178224D
:1007D00031E020E009F430E0832F922F20910001D6
:1007E000309101012817390759F1409128015091A2
:1007F000290160912A0170912B0124013501441ACD
:10080000550A660A770AB301A2014333510561050F
:100810007105B0F08092280190922901A0922A01DE
:10082000B0922B019093010180930001892B41F438
:1008300041E150E064E171E08CE291E00E941F012F
:10084000C114D10409F4A3CF0E948901882309F4BB
:100850009ECF0E9400009BCF90E080E0BFCFECE2F3
:10086000F1E01382128288EE93E0A0E0B0E084838E
:100870009583A683B78386E091E09183808385EC9E
:1008800090E09587848784EC90E09787868780EC5A
:1008900090E0918B808B81EC90E0938B828B82EC4B
:1008A00090E0958B848B86EC90E0978B868B118EF5
:1008B000128E138E148E0895EE0FFF1F0590F49183
:0808C000E02D0994F894FFCF2C
:1008C800010000000000BF011F014C010C027D0166
:1008D8005B016F01427574746F6E206973207072CA
:0608E800657373656400F6
:00000001FF
